:1000000012C02CC02BC02AC029C028C027C026C0BF
:1000100025C024C023C022C021C020C01FC01EC0D4
:100020001DC01CC01BC011241FBECFE5D4E0DEBF25
:10003000CDBF11E0A0E6B0E0E0E9F2E002C005903B
:100040000D92A232B107D9F721E0A2E2B1E001C0DE
:100050001D92A433B207E1F792D018C1D1CF9C0111
:10006000207F332728BB98B3969596959E5F98BBC3
:10007000EFE9FFE03197F1F700C0000098B392502C
:1000800098BB8295807F88BB88B3869586958E5F66
:1000900088BB8FE99FE00197F1F700C0000088B3AB
:1000A000825088BB089582E090E0D9DF88E290E03A
:1000B000D6DF8CE090E0D3DF86E090E0D0DF0895DB
:1000C0009C01207F332728BB28B3269526952D5FDA
:1000D00028BBEFE9FFE03197F1F700C0000028B33B
:1000E000235028BB82959295907F9827807F9827F0
:1000F00088BB88B3869586958D5F88BB8FE99FE026
:100100000197F1F700C0000088B3835088BB0895C1
:1001100088E18AB98EE880BD83E389B910BC08956F
:10012000CF93DF93EC018881882331F0219690E012
:10013000C7DF89918111FBCFDF91CF9108955F9B3C
:10014000FECF8CB190E00895CF93DF9310922701FA
:1001500010922601C0E0D0E0F2DFC85DDE4F888358
:10016000C0912601D09127012196D0932701C093F9
:100170002601CC30D10580F3DF91CF9108958FEF28
:1001800087BB84BB90DF8FE99FE00197F1F700C048
:100190000000BEDF80E890E062DF86EA90E0C0DF2A
:1001A00080EC90E05CDF87EB90E0BADFD1E0C2E06A
:1001B000CBDF8FE99FE00197F1F700C0000081E0FD
:1001C00090E04DDF4CE050E06AE670E088E291E0BC
:1001D0004FD0282F392F121613060CF442C081E09D
:1001E00090E03DDF80EC90E03ADF86EC90E098DF35
:1001F0009FEF2DE339E4915020403040E1F700C0FB
:10020000000081E090E02BDF80E890E028DF85EDC2
:1002100090E086DFD5BB8AEA96EE26E931E0815090
:10022000904020403040D9F7000015BA8FEF90E79A
:1002300022E0815090402040E1F700C0000080E8BB
:1002400090E00DDF82EE90E06BDFC5BB3AEA86EE10
:1002500096E921E03150804090402040D9F70000DD
:10026000A7CF80E890E0FBDE8FEE90E059DFA0CFD3
:10027000FB01DC014150504030F08D91019080191C
:1002800019F40020B9F7881B990B0895F894FFCF53
:10029000E803FA00C800960064003138303038397D
:1002A000303746423644000063686F6F73652079CB
:1002B0006F75722073746174696F6E00312E2061E6
:1002C00020202020322E206200332E206320202088
:1002D00020342E20640057656C636F6D6520746F49
:1002E000204D6574726F005377617020796F75725D
:1002F0002063617264004143434553532047524198
:100300004E544544004F50454E494E4720474154B6
:100310004500434C4F53494E472047415445004107
:1003200063636573732044656E69656400434F4E73
:100330004649524D454400417661696C2042616CEA
:100340003D00506C6561736520526563686172673A
:02035000650046
:00000001FF
